S0130000546865726D6F6D657465722E7372656385
S113000012C024C023C022C021C020C01FC01EC0F3
S11300101DC01CC01BC01AC019C018C017C016C010
S113002015C014C013C011241FBECFE5D4E0DEBF39
S1130030CDBF10E0A0E6B0E0E4EFF0E002C0059030
S11300400D92A836B107D9F737D052C0D9CFFC01E9
S113005047B381E090E09C01008002C0220F331F6F
S11300600A94E2F7422B47BB47B39C01048002C0C9
S1130070220F331F0A94E2F7422B47BB47B39C017C
S1130080028002C0220F331F0A94E2F7422B47BBBF
S113009027B3068002C0880F991F0A94E2F7282B21
S11300A027BB08956C597F4F81E090E0693C71054E
S11300B010F080E090E00895CF93DF93CDB7DEB7E2
S11300C028970FB6F894DEBF0FBECDBF88E0E0E6F8
S11300D0F0E0DE01119601900D928A95E1F7CE01D0
S11300E00196B5DF6BE170E0CE010196DBDFFACF5C
S10700F0F894FFCFAE
S10B00F40000010002000300FA
S9030000FC
