S00F0000737A756B61637A2E737265630A
S113000014C019C018C017C016C015C014C013C03E
S113001012C011C010C00FC00EC00DC00CC00BC068
S11300200AC009C008C007C006C011241FBECFED16
S1130030CDBF1AD03EC0E4CF88B318BA0895CF9389
S1130040DF931F92CDB7DD278983F6DF8981813065
S113005021F0823029F4C29A03C088B3856088BB3A
S11300600F90DF91CF9108958FEE87BBE5DF2FE7E7
S113007089E69FE2215080409040E1F700C00000F3
S1130080B49BF4CF81E0DBDF2FE789E69FE22150C8
S113009080409040E1F700C00000CEDFC29A2FE715
S11300A089E69FE2215080409040E1F700C00000C3
S10900B0DDCFF894FFCF40
S9030000FC
